:100000000C9435000C945D000C945D000C949500EC
:100010000C945D000C94AC000C945D000C945D009D
:100020000C945D000C945D000C945D000C945D00DC
:100030000C945D000C945D000C945D000C945D00CC
:100040000C945D000C945D000C945D000C945D00BC
:100050000C945D000C945D000C945D000C945D00AC
:100060000C945D000C945D006C0211241FBECFEF58
:10007000D8E0DEBFCDBF11E0A0E0B1E0E0E6F5E002
:1000800002C005900D92AC30B107D9F721E0ACE089
:10009000B1E001C01D92A931B207E1F710E0C5E35C
:1000A000D0E004C02197FE010E94A802C433D1070A
:1000B000C9F70E9459020C94AE020C94000087B15B
:1000C000886187B983E68AB987B1877D87B984B1AA
:1000D000866084B921E025B930E83BB983EA84BD64
:1000E00095E095BD81EA809380008DE0809381004A
:1000F000E1EBF0E08081876080831092B200109283
:10010000C50087E68093C40086E08093C20084E83F
:1001100080937A0087E080937E0030936D00209377
:100120006B0090936800789408951F920F920FB619
:100130000F9211248F939F93809117019091180132
:10014000019690931801809317019F918F910F90C2
:100150000FBE0F901F9018951F920F920FB60F921F
:1001600011248F939F93809117019091180101960C
:1001700090931801809317019F918F910F900FBE5C
:100180000F901F9018950F931F938C01000F111F54
:10019000880F991F880F991F880F991F080F191F23
:1001A00020E030E040E050E0BA01E2EBF0E0808196
:1001B000813A30F480818F5F80838081813AD0F3EF
:1001C00010824F5F5F4F6F4F7F4F04171507260751
:1001D000370768F780E090E01F910F910895439AE8
:1001E000089543980895CF93DF9381E090E00E94B3
:1001F000C30082E480937C000E94F100EAE7F0E013
:10020000808180648083808186FDFDCF81E090E0E5
:100210000E94C300EAE7F0E08081806480838081EF
:1002200086FDFDCFC091780080917900D0E0D82B79
:100230000E94EF0081E090E00E94C300EAE7F0E056
:10024000808180648083808186FDFDCF0E94F100E3
:10025000809178002091790090E0922B8C1B9D0B6F
:10026000DF91CF91089581E090E00E94C30080E487
:1002700080937C00EAE7F0E0808180648083808165
:1002800086FDFDCF809178002091790090E0922B3F
:100290000895DF92EF92FF920F931F93CF93DF9316
:1002A00010920F0110920E0188ED95EF90930801C6
:1002B00080930701109289001092880082E387BD25
:1002C00082E390E090938B0080938A0018BC809129
:1002D0000E0190910F018436910508F0D8C00F2EC1
:1002E000F2E3EF2EF12CF02D0F2EF2E3DF2EF02DA6
:1002F0000AE810E0C8E8D0E00E94330190930A01B8
:1003000080930901823321E0920760F02091070178
:1003100030910801235D3E4F281B390B30930801B3
:1003200020930701893241E0940768F42091070186
:1003300030910801235D3E4FF901E81BF90BF09362
:100340000801E09307018091070190910801209135
:10035000120130911301AC01421B530B9A015093CF
:1003600011014093100160910501709106010E94F6
:100370009402FB016091030170910401C9010E9484
:1003800094026E0F7F1F7093150160931401709398
:100390001301609312016333710584F0F09215012B
:1003A000E0921401D0921601F80111821082D8BC9B
:1003B0008091160190E09983888317BC8091140185
:1003C000909115018E3C9F4F84F4F0921501E092BC
:1003D0001401D092160119821882D7BC809116019F
:1003E00090E0F8019183808318BC80911401909172
:1003F00015019C01205D3F4F2136310560F518162F
:10040000190664F480931601F8011182108288BDE8
:100410008091160190E09983888317BC8091140124
:10042000909115019923BCF49C01992324F422276F
:100430003327281B390B2093140130931501209387
:1004400016011982188227BD8091160190E0F801EB
:100450009183808318BC80911401909115010E96B0
:100460004D9748F480910E0190910F010196909361
:100470000F0180930E0187E090E00E94C3008091FD
:100480000E0190910F018436910508F435CF10923A
:100490008B0010928A0018BC10928900109288007C
:1004A00017BCDF91CF911F910F91FF90EF90DF90DC
:1004B00008950E945F000E94F3008032934028F468
:1004C0008AE090E00E94C300F6CF0E94490188E8CC
:1004D00093E10E94C300F9CF8091020190E005975B
:1004E0004091000150910101849F9001859F300D42
:1004F000949F300D112430930D0120930C01089529
:10050000AA1BBB1B51E107C0AA1FBB1FA617B70739
:1005100010F0A61BB70B881F991F5A95A9F7809555
:100520009095BC01CD01089597FB072E16F4009419
:1005300007D077FD09D00E94800207FC05D03EF469
:10054000909581959F4F0895709561957F4F08957F
:10055000EE0FFF1F0590F491E02D0994F894FFCF62
:0C0560001400326400320068F701000053
:00000001FF
