S00E0000627574746F6E2E737265637A
S11300000C9434000C943E000C943E000C943E007E
S11300100C943E000C943E000C943E000C943E0064
S11300200C943E000C943E000C943E000C943E0054
S11300300C943E000C943E000C943E000C943E0044
S11300400C943E000C943E000C943E000C943E0034
S11300500C943E000C943E000C943E000C943E0024
S11300600C943E000C943E0011241FBECFEFD8E048
S1130070DEBFCDBF0E9440000C944F000C940000E2
S11300803D9883E08AB952984A9B02C0599A01C0AC
S11300905998359B02C0589AF7CF5898F5CFF894E1
S10500A0FFCF8C
S9030000FC
