S0140000656E636F6465725475726E732E7372656314
S11300000C9434000C9446000C9446000C947E002E
S11300100C9446000C9495000C9446000C944600F5
S11300200C9446000C9446000C9446000C94460034
S11300300C9446000C9446000C9446000C94460024
S11300400C9446000C9446000C9446000C94460014
S11300500C9446000C9446000C9446000C94460004
S11300600C9446000C94460011241FBECFEFD8E038
S1130070DEBFCDBF21E0A0E0B1E001C01D92A230FF
S1130080B207E1F70E9440010C9449010C9400006E
S113009087B1886187B983E68AB987B1877D87B9D3
S11300A084B1866084B921E025B930E83BB983EA9C
S11300B084BD95E095BD81EA809380008DE08093B6
S11300C08100E1EBF0E08081876080831092B200D0
S11300D01092C50087E68093C40086E08093C20036
S11300E084E880937A0087E080937E0030936D00EB
S11300F020936B0090936800789408951F920F9258
S11301000FB60F9211248F939F93809100019091C9
S11301100101019690930101809300019F918F91B9
S11301200F900FBE0F901F9018951F920F920FB64D
S11301300F9211248F939F9380910001909101015C
S1130140019690930101809300019F918F910F90EC
S11301500FBE0F901F9018950F931F938C01000FE3
S1130160111F880F991F880F991F880F991F080F57
S1130170191F20E030E040E050E0BA01E2EBF0E08B
S11301808081813A30F480818F5F80838081813ADD
S1130190D0F310824F5F5F4F6F4F7F4F04171507E7
S11301A02607370768F780E090E01F910F910895C4
S11301B0EF92FF920F931F93CF93DF93CAE0D0E0A7
S11301C00F2EF8E8EF2EF12CF02D0AE810E0F701DD
S11301D011821082C7BDF801D183C08318BC84E1A9
S11301E090E00E94AC002A96C233D10581F71092A8
S11301F00101109200018091000190910101893662
S1130200910578F5A8E8B0E042E3EAE8F0E022E3FB
S113021030E011961C921E9247BD3183208318BC96
S113022080910001909101018936910590F319C0E4
S1130230F70111821082C7BDF801D183C08318BCB5
S113024084E190E00E94AC002A9791F71092890013
S11302501092880017BC10928B0010928A0018BC70
S113026008C00F2EF8E8EF2EF12CF02D0AE810E06C
S1130270DFCFDF91CF911F910F91FF90EF90089501
S11302800E94480080ED97E00E94AC000E94D800D4
S1090290F9CFF894FFCF42
S9030000FC
