S00F0000456E636F6465722E7372656355
S11300000C9434000C9446000C9446000C94830029
S11300100C9446000C949A000C9446000C944600F0
S11300200C9446000C9446000C9446000C94460034
S11300300C9446000C9446000C9446000C94460024
S11300400C9446000C9446000C9446000C94460014
S11300500C9446000C9446000C9446000C94460004
S11300600C9446000C94460011241FBECFEFD8E038
S1130070DEBFCDBF21E0A0E0B1E001C01D92A230FF
S1130080B207E1F70E94B1000C94C2000C94000086
S113009087B1886187B98AB183608AB987B1877D5E
S11300A087B952988AB180668AB984B1866084B966
S11300B021E025B930E83BB983EA84BD95E095BDDC
S11300C081EA809380008DE080938100E1EBF0E091
S11300D08081876080831092B2001092C50087E609
S11300E08093C40086E08093C20084E880937A0001
S11300F087E080937E0030936D0020936B00909393
S11301006800789408951F920F920FB60F921124ED
S11301108F939F9380910001909101010196909398
S11301200101809300019F918F910F900FBE0F905A
S11301301F9018951F920F920FB60F9211248F9350
S11301409F93809100019091010101969093010188
S1130150809300019F918F910F900FBE0F901F907D
S1130160189581E08AB90E9448008091000190911D
S1130170010185359B40C8F3489A10920101109201
S10B01800001F3CFF894FFCF56
S9030000FC
