S0100000527853657269616C2E73726563EA
S11300000C9434000C9446000C9446000C94460066
S11300100C9446000C9446000C9446000C94460044
S11300200C9446000C9446000C9446000C94460034
S11300300C9446000C9446000C9446000C94460024
S11300400C9446000C9446000C9468000C944600F2
S11300500C9446000C9446000C9446000C94460004
S11300600C9446000C94460011241FBECFEFD8E038
S1130070DEBFCDBF21E0A0E0B1E001C01D92A13000
S1130080B207E1F70E9448000C9478000C94000039
S11300901092C50087E68093C40080E98093C10074
S11300A086E08093C20088E087B97894809100014B
S11300B08636E1F7439A2FEF83EC99E02150804094
S11300C09040E1F700C00000439810920001EECF89
S11300D01F920F920FB60F9211248F938091C60036
S11300E0809300018F910F900FBE0F901F90189571
S10700F0F894FFCFAE
S9030000FC
