:100000000C9434000C943E000C943E000C943E0082
:100010000C943E000C943E000C943E000C943E0068
:100020000C943E000C943E000C943E000C943E0058
:100030000C943E000C943E000C943E000C943E0048
:100040000C943E000C943E000C943E000C943E0038
:100050000C943E000C943E000C943E000C943E0028
:100060000C943E000C943E0011241FBECFEFD8E04C
:10007000DEBFCDBF0E9440000C946F000C940000C6
:1000800084E084B981E28093800010928B0010920A
:100090008A008DE080938100EAE8F0E080E090E063
:1000A000918380832FEF39E648E121503040404072
:1000B000E1F700C0000005968F3F910589F78FEFAB
:1000C00090E0918380832FEF39E648E12150304062
:1000D0004040E1F700C00000059799F7DFCFF894A2
:0200E000FFCF50
:00000001FF
