:100000000C9434000C9446000C9446000C9483002D
:100010000C9446000C949A000C9446000C944600F4
:100020000C9446000C9446000C9446000C94460038
:100030000C9446000C9446000C9446000C94460028
:100040000C9446000C9446000C9446000C94460018
:100050000C9446000C9446000C9446000C94460008
:100060000C9446000C94460011241FBECFEFD8E03C
:10007000DEBFCDBF21E0A0E0B1E001C01D92A43001
:10008000B207E1F70E94C8000C9428010C9400000C
:1000900087B1886187B98AB183608AB987B1877D62
:1000A00087B952988AB180668AB984B1866084B96A
:1000B00021E025B930E83BB983EA84BD95E095BDE0
:1000C00081EA809380008DE080938100E1EBF0E095
:1000D0008081876080831092B2001092C50087E60D
:1000E0008093C40086E08093C20084E880937A0005
:1000F00087E080937E0030936D0020936B00909397
:100100006800789408951F920F920FB60F921124F1
:100110008F939F9380910201909103010196909398
:100120000301809302019F918F910F900FBE0F905A
:100130001F9018951F920F920FB60F9211248F9354
:100140009F93809102019091030101969093030186
:10015000809302019F918F910F900FBE0F901F907F
:100160001895EAE7F0E0808180648083808186FDD5
:10017000FDCFEAE7F0E0808180648083808186FDA6
:10018000FDCF809178002091790090E0922B089526
:10019000CF92DF92EF92FF920F931F93CF93DF9353
:1001A0000E944800C2EBD0E00F2EF8E8EF2EF12CB1
:1001B000F02D0F2EF2E3CF2EF02D0AE810E00F2ED7
:1001C000F4E6DF2EF02D20E030E08881813A30F433
:1001D00088818F5F88838881813AD0F318822F5F6E
:1001E0003F4F2B30310589F7F70111821082C7BCD0
:1001F000F80111821082D8BC0E94B1002091000148
:1002000030910101820F931F9093010180930001AF
:10021000809100019091010185389340A0F21092E5
:10022000010110920001109289001092880017BC01
:1002300010928B0010928A0018BC80E090E0DF9151
:10024000CF911F910F91FF90EF90DF90CF90089585
:04025000F894FFCF50
:00000001FF
