:100000000C9434000C9451000C9451000C94890011
:100010000C9451000C94A0000C9451000C945100CD
:100020000C9451000C9451000C9451000C9451000C
:100030000C9451000C9451000C9451000C945100FC
:100040000C9451000C9451000C9451000C945100EC
:100050000C9451000C9451000C9451000C945100DC
:100060000C9451000C94510011241FBECFEFD8E026
:10007000DEBFCDBF11E0A0E0B1E0E2EFF3E002C0EF
:1000800005900D92A030B107D9F721E0A0E0B1E0D2
:1000900001C01D92A230B207E1F70E94AF010C949B
:1000A000F7010C94000087B1886187B983E68AB9AB
:1000B00087B1877D87B984B1866084B921E025B98D
:1000C00030E83BB983EA84BD95E095BD81EA809331
:1000D00080008DE080938100E1EBF0E0808187601B
:1000E00080831092B2001092C50087E68093C4000E
:1000F00086E08093C20084E880937A0087E0809352
:100100007E0030936D0020936B009093680078948C
:1001100008951F920F920FB60F9211248F939F9301
:1001200080910001909101010196909301018093CB
:1001300000019F918F910F900FBE0F901F90189507
:100140001F920F920FB60F9211248F939F9380915D
:1001500000019091010101969093010180930001AB
:100160009F918F910F900FBE0F901F9018950F9336
:100170001F938C01000F111F880F991F880F991F63
:10018000880F991F080F191F20E030E040E050E071
:10019000BA01E2EBF0E08081813A30F480818F5F38
:1001A00080838081813AD0F310824F5F5F4F6F4F21
:1001B0007F4F041715072607370768F780E090E0A0
:1001C0001F910F910895449A08954498089581E0ED
:1001D00090E00E94B70081E480937C00EAE7F0E0C1
:1001E000808180648083808186FDFDCF81E090E006
:1001F0000E94B700EAE7F0E080818064808380811C
:1002000086FDFDCF0E94E30081E090E00E94B700F0
:10021000EAE7F0E0808180648083808186FDFDCF05
:100220000E94E500809178002091790090E0922B67
:10023000089581E090E00E94B70087E480937C00FD
:10024000EAE7F0E0808180648083808186FDFDCFD5
:1002500081E090E00E94B700EAE7F0E080818064EE
:100260008083808186FDFDCF0E94E30081E090E0E5
:100270000E94B700EAE7F0E080818064808380819B
:1002800086FDFDCF0E94E5008091780020917900E5
:1002900090E0922B0895DF92EF92FF920F931F93BD
:1002A000CF93DF9300D000D000D0CDB7DEB70F2EB4
:1002B000F1ECEF2EF12CF02D28E0F70120834AE03D
:1002C000BE016F5F7F4F0E94C20181E090E00E94FB
:1002D000B700898106EC10E0F801808381E090E0AE
:1002E0000E94B7008A81F801808381E090E00E943B
:1002F000B7008B81F801808381E090E00E94B70015
:100300008C81F801808381E090E00E94B7008D81AC
:10031000F801808381E090E00E94B7008AE0F80154
:10032000808381E090E00E94B7000F2EFDE0DF2E79
:10033000F02DF801D08281E090E00E94B700F70133
:10034000D08226960FB6F894DEBF0FBECDBFDF91E8
:10035000CF911F910F91FF90EF90DF9008950E9431
:1003600053000E94E7000E944B0181E090E00E9450
:10037000B7000E9419010E944B0188EE93E00E9491
:10038000B700EFCFBB274A3031F4992322F4BDE206
:10039000909581959F4F0C94CE01BB27FB0155276B
:1003A000AA27880F991FAA1FA41710F0A41B8395D2
:1003B0005051B9F7A05DAA3308F0A95DA193009749
:1003C00079F7B111B1931192CB010C94E701DC01E3
:1003D000FC01672F71917723E1F7329704C07C917C
:1003E0006D9370836291AE17BF07C8F30895F894B8
:0203F000FFCF3D
:00000001FF
