S0120000636865636B57616C6C732E7372656311
S11300000C9434000C9446000C9446000C94460066
S11300100C9446000C9446000C9446000C94460044
S11300200C9446000C9446000C9446000C94460034
S11300300C9446000C9446000C9446000C94460024
S11300400C9446000C9446000C9446000C94460014
S11300500C9446000C9446000C9446000C94460004
S11300600C9446000C94460011241FBECFEFD8E038
S1130070DEBFCDBF21E0A0E0B1E001C01D92A13000
S1130080B207E1F70E9450010C9482030C94000023
S113009087B1886187B98AB183608AB98AB1806679
S11300A08AB983EA84BD85E085BD84B1866084B95C
S11300B081EA809380008DE080938100E1EBF0E0A1
S11300C08081876080831092B2001092C50087E619
S11300D08093C40086E08093C20087B1877D87B98E
S11300E0529884E880937A0087E080937E00789425
S11300F00895449A80E090E00895449880E090E068
S11301000895439A80E090E00895439880E090E059
S11301100895CF93DF9386E480937C00EAE7F0E0D0
S1130120808180648083808186FDFDCFEAE7F0E0F2
S1130130808180648083808186FDFDCFC0917800BA
S113014080917900D0E0D82B0E9481008FE99FE054
S11301500197F1F700C00000EAE7F0E080818064D5
S11301608083808186FDFDCF0E9485008091780088
S11301702091790090E0922B8C1B9D0BDF91CF9105
S11301800895CF93DF9381E480937C00EAE7F0E065
S1130190808180648083808186FDFDCFEAE7F0E082
S11301A0808180648083808186FDFDCFC09178004A
S11301B080917900D0E0D82B0E9479008FE99FE0EC
S11301C00197F1F700C00000EAE7F0E08081806465
S11301D08083808186FDFDCF0E947D008091780020
S11301E02091790090E0922B8C1B9D0BDF91CF9195
S11301F00895CF93DF9387E480937C00EAE7F0E0EF
S1130200808180648083808186FDFDCFEAE7F0E011
S1130210808180648083808186FDFDCFC0917800D9
S113022080917900D0E0D82B0E9479008FE99FE07B
S11302300197F1F700C00000EAE7F0E080818064F4
S11302408083808186FDFDCF0E947D0080917800AF
S11302502091790090E0922B8C1B9D0BDF91CF9124
S11302600895CF930E94C100C1E08536910508F43A
S1130270C0E00E9489008536910508F0C2600E94A2
S1130280F9008536910508F0C4608C2FCF9108954C
S1130290599A80E090E00895599880E090E008959C
S11302A00E9448000E94310180930001873009F0C8
S11302B043C00E9448012FEF89E698E12150804015
S11302C09040E1F700C000000E944C012FEF81EE46
S11302D094E0215080409040E1F700C000000E946B
S11302E048012FEF89E698E1215080409040E1F7E2
S11302F000C000000E944C012FEF81EE94E02150D9
S113030080409040E1F700C000000E9448012FEFB8
S113031089E698E1215080409040E1F700C0000058
S11303200E944C012FEF83ED90E3215080409040D8
S1130330E1F700C00000B6CF863009F043C00E9448
S113034048012FEF81EE94E0215080409040E1F786
S113035000C000000E944C012FEF81EE94E0215078
S113036080409040E1F700C000000E9448012FEF58
S113037089E698E1215080409040E1F700C00000F8
S11303800E944C012FEF81EE94E021508040904078
S1130390E1F700C000000E9448012FEF89E698E1D0
S11303A0215080409040E1F700C000000E944C01C1
S11303B02FEF83ED90E3215080409040E1F700C09F
S11303C0000070CF853009F043C00E9448012FEF30
S11303D089E698E1215080409040E1F700C0000098
S11303E00E944C012FEF81EE94E021508040904018
S11303F0E1F700C000000E9448012FEF81EE94E075
S1130400215080409040E1F700C000000E944C0160
S11304102FEF81EE94E0215080409040E1F700C03E
S113042000000E9448012FEF89E698E121508040A6
S11304309040E1F700C000000E944C012FEF83EDD3
S113044090E3215080409040E1F700C000002ACFA3
S1130450843009F043C00E9448012FEF81EE94E0FC
S1130460215080409040E1F700C000000E944C0100
S11304702FEF81EE94E0215080409040E1F700C0DE
S113048000000E9448012FEF81EE94E0215080404B
S11304909040E1F700C000000E944C012FEF81EE74
S11304A094E0215080409040E1F700C000000E9499
S11304B048012FEF89E698E1215080409040E1F710
S11304C000C000000E944C012FEF83ED90E3215007
S11304D080409040E1F700C00000E4CE813009F094
S11304E043C00E9448012FEF89E698E121508040E3
S11304F09040E1F700C000000E944C012FEF81EE14
S113050094E0215080409040E1F700C000000E9438
S113051048012FEF81EE94E0215080409040E1F7B4
S113052000C000000E944C012FEF81EE94E02150A6
S113053080409040E1F700C000000E9448012FEF86
S113054081EE94E0215080409040E1F700C000002B
S11305500E944C012FEF83ED90E3215080409040A6
S1130560E1F700C000009ECE823009F043C00E9433
S113057048012FEF81EE94E0215080409040E1F754
S113058000C000000E944C012FEF81EE94E0215046
S113059080409040E1F700C000000E9448012FEF26
S11305A089E698E1215080409040E1F700C00000C6
S11305B00E944C012FEF81EE94E021508040904046
S11305C0E1F700C000000E9448012FEF81EE94E0A3
S11305D0215080409040E1F700C000000E944C018F
S11305E02FEF83ED90E3215080409040E1F700C06D
S11305F0000058CE811143C00E9448012FEF81EEC4
S113060094E0215080409040E1F700C000000E9437
S11306104C012FEF81EE94E0215080409040E1F7AF
S113062000C000000E9448012FEF81EE94E02150A9
S113063080409040E1F700C000000E944C012FEF81
S113064081EE94E0215080409040E1F700C000002A
S11306500E9448012FEF81EE94E0215080409040A9
S1130660E1F700C000000E944C012FEF83ED90E3FE
S1130670215080409040E1F700C0000013CE0E945A
S113068048012FEF81EE94E0215080409040E1F743
S113069000C000000E944C012FEF81EE94E0215035
S11306A080409040E1F700C000000E9448012FEF15
S11306B081EE94E0215080409040E1F700C00000BA
S11306C00E944C012FEF81EE94E021508040904035
S11306D0E1F700C000000E9448012FEF81EE94E092
S11306E0215080409040E1F700C000000E944C017E
S11306F02FEF81EE94E0215080409040E1F700C05C
S10B07000000D0CDF894FFCFF6
S9030000FC
