S019000063616C63756C61746546617374506174682E7372656342
S11300000C9435000C945D000C945D000C949500E8
S11300100C945D000C94AC000C945D000C945D0099
S11300200C945D000C945D000C945D000C945D00D8
S11300300C945D000C945D000C945D000C945D00C8
S11300400C945D000C945D000C945D000C945D00B8
S11300500C945D000C945D000C945D000C945D00A8
S11300600C945D000C945D002E0D11241FBECFEF87
S1130070D8E0DEBFCDBF11E0A0E0B1E0E4EEFAE1EC
S113008002C005900D92A232B107D9F721E0A2E295
S1130090B1E001C01D92AB3DB207E1F710E0C5E34A
S11300A0D0E004C02197FE010E946A0DC433D10739
S11300B0C9F70E94130D0C94700D0C94000087B1C5
S11300C0886187B983E68AB987B1877D87B984B1A6
S11300D0866084B921E025B930E83BB983EA84BD60
S11300E095E095BD81EA809380008DE08093810046
S11300F0E1EBF0E08081876080831092B20010927F
S1130100C50087E68093C40086E08093C20084E83B
S113011080937A0087E080937E0030936D00209373
S11301206B0090936800789408951F920F920FB615
S11301300F9211248F939F938091D8019091D901AC
S113014001969093D9018093D8019F918F910F903C
S11301500FBE0F901F9018951F920F920FB60F921B
S113016011248F939F938091D8019091D901019686
S11301709093D9018093D8019F918F910F900FBED6
S11301800F901F9018950F931F938C01000F111F50
S1130190880F991F880F991F880F991F080F191F1F
S11301A020E030E040E050E0BA01E2EBF0E0808192
S11301B0813A30F480818F5F80838081813AD0F3EB
S11301C010824F5F5F4F6F4F7F4F0417150726074D
S11301D0370768F780E090E01F910F910895449AE3
S11301E0089544980895439A089543980895CF93A1
S11301F0DF9381E090E00E94C30082E480937C005E
S11302000E94F500EAE7F0E08081806480838081C9
S113021086FDFDCF81E090E00E94C300EAE7F0E0B4
S1130220808180648083808186FDFDCFC0917800C9
S113023080917900D0E0D82B0E94F30081E090E017
S11302400E94C300EAE7F0E08081806480838081BB
S113025086FDFDCF0E94F500809178002091790001
S113026090E0922B8C1B9D0BDF91CF910895CF933F
S1130270DF9381E090E00E94C30086E480937C00D9
S11302800E94F500EAE7F0E0808180648083808149
S113029086FDFDCF81E090E00E94C300EAE7F0E034
S11302A0808180648083808186FDFDCFC091780049
S11302B080917900D0E0D82B0E94F30081E090E097
S11302C00E94C300EAE7F0E080818064808380813B
S11302D086FDFDCF0E94F500809178002091790081
S11302E090E0922B8C1B9D0BDF91CF910895CF93BF
S11302F0DF9381E090E00E94C30081E480937C005E
S1130300EAE7F0E0808180648083808186FDFDCF10
S113031081E090E00E94C300EAE7F0E0808180641D
S11303208083808186FDFDCFC09178008091790023
S1130330D0E0D82B0E94EF0081E090E00E94C3003F
S1130340EAE7F0E0808180648083808186FDFDCFD0
S11303500E94F100809178002091790090E0922B26
S11303608C1B9D0BDF91CF910895CF93DF9381E098
S113037090E00E94C30087E480937C00EAE7F0E009
S1130380808180648083808186FDFDCF81E090E060
S11303900E94C300EAE7F0E080818064808380816A
S11303A086FDFDCFC091780080917900D0E0D82BF4
S11303B00E94EF0081E090E00E94C300EAE7F0E0D1
S11303C0808180648083808186FDFDCF0E94F1005E
S11303D0809178002091790090E0922B8C1B9D0BEA
S11303E0DF91CF91089581E090E00E94C30086E4FC
S11303F080937C000E94F500EAE7F0E0808180644D
S11304008083808186FDFDCF81E090E00E94C3005F
S1130410EAE7F0E0808180648083808186FDFDCFFF
S11304200E94F30081E090E00E94C300EAE7F0E05C
S1130430808180648083808186FDFDCF0E94F500E9
S1130440809178002091790090E0922B089581E0CA
S113045090E00E94C30081E480937C00EAE7F0E02E
S1130460808180648083808186FDFDCF81E090E07F
S11304700E94C300EAE7F0E0808180648083808189
S113048086FDFDCF0E94EF0081E090E00E94C30052
S1130490EAE7F0E0808180648083808186FDFDCF7F
S11304A00E94F100809178002091790090E0922BD5
S11304B0089581E090E00E94C30087E480937C006B
S11304C0EAE7F0E0808180648083808186FDFDCF4F
S11304D081E090E00E94C300EAE7F0E0808180645C
S11304E08083808186FDFDCF0E94EF0081E090E053
S11304F00E94C300EAE7F0E0808180648083808109
S113050086FDFDCF0E94F100809178002091790052
S113051090E0922B08951092DA010E947701803BBB
S1130520910528F08091DA0181608093DA010E94BC
S113053037014F9728F08091DA0182608093DA01C5
S11305400E94B501803B910528F08091DA01846016
S11305508093DA018091DA010895EF92FF920F936C
S11305601F93CF93DF93CAE0D0E00F2EF8E8EF2E6D
S1130570F12CF02D0AE810E0F70111821082C7BDBA
S1130580F801D183C08318BC84E190E00E94C300C9
S11305902A96C233D10581F71092D9011092D8015D
S11305A08091D8019091D9018231924078F5A8E8E0
S11305B0B0E042E3EAE8F0E022E330E011961C9276
S11305C01E9247BD3183208318BC8091D80190913D
S11305D0D9018231924090F319C0F701118210823F
S11305E0C7BDF801D183C08318BC84E190E00E94A8
S11305F0C3002A9791F7109289001092880017BCC3
S113060010928B0010928A0018BC08C00F2EF8E8D4
S1130610EF2EF12CF02D0AE810E0DFCFDF91CF911F
S11306201F910F91FF90EF90089581E090E00E9458
S1130630C30080E480937C00EAE7F0E0808180647A
S11306408083808186FDFDCF8091780020917900A0
S113065090E0922B0895DF92EF92FF920F931F93F5
S1130660CF93DF9310923E0110923D0184E398E012
S113067090931D0180931C0110928B0010928A00AC
S113068082E388BD82E390E09093890080938800A0
S113069017BC80913D0190913E018436910508F08C
S11306A0BCC00F2EF2E3EF2EF12CF02D0F2EF2E34F
S11306B0DF2EF02D0AE810E0C8E8D0E00E94150310
S11306C090931F0180931E01823321E0920760F012
S11306D020911C0130911D01235D3E4F281B390BD5
S11306E030931D0120931C01893241E0940768F482
S11306F020911C0130911D01235D3E4FF901E81B3F
S1130700F90BF0931D01E0931C0180911C01909161
S11307101D012091410130914201AC01421B530B58
S11307209A015093400140933F01609118017091E8
S113073019010E94560DFB01609116017091170179
S1130740C9010E94560D6E0F7F1F70934401609380
S1130750430170934201609341016333710584F056
S1130760F0924401E0924301D0924501F8011182D4
S11307701082D8BC8091450190E09983888317BC8E
S113078080914301909144018E3C9F4F84F4F092F8
S11307904401E0924301D092450119821882D7BCEA
S11307A08091450190E0F8019183808318BC809189
S11307B04301909144019C01205D3F4F2136310556
S11307C080F420914501222361F080934501F801D2
S11307D01182108288BD8091450190E099838883BD
S11307E017BC80914301909144010E964D9748F4B3
S11307F080913D0190913E01019690933E0180933A
S11308003D0187E090E00E94C30080913D019091FA
S11308103E018436910508F451CF10928B0010925A
S11308208A0018BC109289001092880017BCDF91CE
S1130830CF911F910F91FF90EF90DF900895DF9279
S1130840EF92FF920F931F93CF93DF9310923E0189
S113085010923D0188ED95EF90931B0180931A014E
S1130860109289001092880082E387BD82E390E0B1
S113087090938B0080938A0018BC80913D019091E5
S11308803E018436910508F0D8C00F2EF2E3EF2E16
S1130890F12CF02D0F2EF2E3DF2EF02D0AE810E0FC
S11308A0C8E8D0E00E94150390931F0180931E01B5
S11308B0823321E0920760F020911A0130911B01EC
S11308C0235D3E4F281B390B30931B0120931A01E3
S11308D0893241E0940768F420911A0130911B0198
S11308E0235D3E4FF901E81BF90BF0931B01E093E4
S11308F01A0180911A0190911B01209141013091BC
S11309004201AC01421B530B9A01509340014093A6
S11309103F0160911801709119010E94560DFB016D
S11309206091160170911701C9010E94560D6E0F56
S11309307F1F70934401609343017093420160935D
S113094041016333710584F0F0924401E092430164
S1130950D0924501F80111821082D8BC80914501E2
S113096090E09983888317BC80914301909144015E
S11309708E3C9F4F84F4F0924401E0924301D09264
S1130980450119821882D7BC8091450190E0F80195
S11309909183808318BC80914301909144019C0110
S11309A0205D3F4F2136310560F51816190664F4B1
S11309B080934501F8011182108288BD8091450120
S11309C090E09983888317BC8091430190914401FE
S11309D09923BCF49C01992324F422273327281B50
S11309E0390B20934301309344012093450119822C
S11309F0188227BD8091450190E0F801918380839E
S1130A0018BC80914301909144010E964D9748F48F
S1130A1080913D0190913E01019690933E01809317
S1130A203D0187E090E00E94C30080913D019091D8
S1130A303E018436910508F435CF10928B00109254
S1130A408A0018BC109289001092880017BCDF91AC
S1130A50CF911F910F91FF90EF90DF900895CF9267
S1130A60DF92EF92FF920F931F93CF93DF930F2E9A
S1130A70FEEACF2EF3E0DF2EF02D0F2EF8E8EF2E56
S1130A80F12CF02D02E310E0CAE8D0E081E090E020
S1130A900E94C3000E94F7008E3A23E0920708F4F4
S1130AA051C08E5A93409093150180931401843160
S1130AB0910590F4109215011092140110923A01CC
S1130AC010923901809131019091320101969093F5
S1130AD032018093310106C0C39720F010931501B1
S1130AE00093140180911401909115012091390112
S1130AF030913A01AC01421B530B9A0150933601D9
S1130B004093350160911001709111010E94420DD2
S1130B10FB0160910E0170910F01C9010E94420D09
S1130B206E0F7F1F709315016093140170933A0147
S1130B306093390160933C017727F70171836083E7
S1130B4017BC51C09601281B390B30931501209313
S1130B5014012431310590F41092150110921401FE
S1130B6010923A0110923901809131019091320131
S1130B700196909332018093310107C023333105EC
S1130B8020F01093150100931401809114019091A9
S1130B9015012091390130913A01AC01421B530BEC
S1130BA09A01509336014093350160911001709180
S1130BB011010E94420DFB0160910E0170910F0121
S1130BC0C9010E94420D6E0F7F1F7093150160933F
S1130BD0140170933A016093390160933C01F70169
S1130BE01182108267BD81E090E00E94C3000E94E0
S1130BF037018E3AF3E09F0708F450C08E5A9340B1
S1130C0090931301809312018431910590F4109212
S1130C101301109212011092380110923701809141
S1130C203101909132010196909332018093310108
S1130C3006C0C39720F01093130100931201809112
S1130C401201909113012091370130913801AC01C8
S1130C50421B530B9A01509334014093330160912A
S1130C601001709111010E94420DFB0160910E016F
S1130C7070910F01C9010E94420D6E0F7F1F709386
S1130C8013016093120170933801609337016093EC
S1130C903B0177277983688318BC4FC0F601E81BB2
S1130CA0F90BF0931301E0931201E431F10590F490
S1130CB01092130110921201109238011092370110
S1130CC08091310190913201019690933201809389
S1130CD0310106C0F39720F0109313010093120121
S1130CE080911201909113012091370130913801C4
S1130CF0AC01421B530B9A015093340140933301CE
S1130D0060911001709111010E94420DFB016091EC
S1130D100E0170910F01C9010E94420D6E0F7F1FD9
S1130D20709313016093120170933801609337013B
S1130D3060933B011982188268BD809131019091C2
S1130D403201C39708F4A2CE109289001092880051
S1130D5017BC10928B0010928A0018BC10923201BA
S1130D6010923101DF91CF911F910F91FF90EF907D
S1130D70DF90CF900895CF93DF9380912F019091CE
S1130D80300120910C0130910D012817390708F02A
S1130D9060C140912D0150912E0120910A013091A2
S1130DA00B012417350708F0AAC0209108013091DF
S1130DB009012817390708F051C0821B930B880FCB
S1130DC0991F90932C0180932B0120912201309143
S1130DD023012817390720F430932C0120932B0189
S1130DE020912B0130912C018091270190912801B1
S1130DF0F901E81BF90BF0932A01E09329016091B2
S1130E00020170910301C9010E94420DEB0160913E
S1130E10000170910101CF010E94420D6C0F7D1FF2
S1130E2070932601609325013093280120932701B4
S1130E306093240180910501680F1092890010923B
S1130E40880067BD809104018C5F90912401891B07
S1130E5010928B0010928A0088BDDBC1281B390BCD
S1130E60220F331F30932C0120932B0180912201F8
S1130E70909123018217930720F490932C0180937F
S1130E802B0120912B0130912C018091270190910D
S1130E902801F901E81BF90BF0932A01E0932901D9
S1130EA06091020170910301C9010E94420DEB019E
S1130EB06091000170910101CF010E94420D6C0FFD
S1130EC07D1F7093260160932501309328012093A0
S1130ED027016093240180910501861B10928900EB
S1130EE01092880087BD9091040180912401890F9C
S1130EF08C5F10928B0010928A0088BD8AC1209169
S1130F000801309109012817390708F051C0821BE4
S1130F10930B880F991F90932C0180932B012091A0
S1130F202201309123012817390720F430932C0132
S1130F3020932B0120912B0130912C0180912701CA
S1130F4090912801F901E81BF90BF0932A01E09331
S1130F5029016091020170910301C9010E94420DAF
S1130F60EB016091000170910101CF010E94420DDB
S1130F706C0F7D1F70932601609325013093280127
S1130F80209327016093240180910501680F10923A
S1130F9089001092880067BD809104018C5F909154
S1130FA02401891B10928B0010928A0088BD31C1E4
S1130FB0281B390B220F331F30932C0120932B0154
S1130FC080912201909123018217930720F490933A
S1130FD02C0180932B0120912B0130912C018091C5
S1130FE0270190912801F901E81BF90BF0932A01DC
S1130FF0E09329016091020170910301C9010E94EB
S1131000420DEB016091000170910101CF010E943A
S1131010420D6C0F7D1F7093260160932501309360
S11310202801209327016093240180910501861BE8
S1131030109289001092880087BD909104018091DC
S11310402401890F8C5F10928B0010928A0088BD56
S1131050E0C040912D0150912E0160910A017091E0
S11310600B016417750708F0AAC0809106019091DE
S113107007018417950708F051C0481B590B440F0A
S1131080551F50932C0140932B0180912201909184
S113109023018417950720F490932C0180932B014E
S11310A020912B0130912C018091270190912801EE
S11310B0F901E81BF90BF0932A01E09329016091EF
S11310C0020170910301C9010E94420DEB0160917C
S11310D0000170910101CF010E94420D6C0F7D1F30
S11310E070932601609325013093280120932701F2
S11310F06093240180910501861B1092890010924F
S1131100880087BD9091040180912401890F8C5F30
S113111010928B0010928A0088BD7BC0841B950BB3
S1131120880F991F90932C0180932B012091220109
S1131130309123012817390720F430932C01209390
S11311402B0120912B0130912C018091270190914A
S11311502801F901E81BF90BF0932A01E093290116
S11311606091020170910301C9010E94420DEB01DB
S11311706091000170910101CF010E94420D6C0F3A
S11311807D1F7093260160932501309328012093DD
S113119027016093240180910501680F1092890052
S11311A01092880067BD809104018C5F90912401A6
S11311B0891B10928B0010928A0088BD2AC0821766
S11311C0930738F54617570720F510922C01109213
S11311D02B0110922A0110922901109226011092DB
S11311E02501109228011092270110922401809168
S11311F00501109289001092880087BD8091040136
S11312008C5F90912401891B10928B0010928A00AC
S113121088BDDF91CF910895EF92FF920F931F93B2
S1131220CF93CAE00F2EF8E8EF2EF12CF02D0AE848
S113123010E0F70111821082C7BDF80111821082FB
S1131240C8BD84E190E00E94C300C65FC23389F741
S11312501092D9011092D8018091D8019091D901AE
S113126088359240A8F40E9427029093300180931D
S11312702F010E94590290932E0180932D010E9408
S1131280BB068091D8019091D9018835924058F3DA
S11312900E948B028091D8019091D9018C349440A2
S11312A0C0F50E9427029093300180932F010E9481
S11312B0590290932E0180932D010E94BB068091C8
S11312C0D8019091D9018C34944058F322C083E121
S11312D08C0FF7011182108287BDF80111821082F0
S11312E0C8BD84E190E00E94C300CA5081F70E9407
S11312F0F3018536910510F00E942F0510928900A4
S11313001092880017BC10928B0010928A0018BCAF
S113131009C0C8E20F2EF8E8EF2EF12CF02D0AE8F0
S113132010E0D5CFCF911F910F91FF90EF900895CA
S1131330E8E4F1E088E7808338E5308F68EC60AB5F
S113134078E6709390013093A8017093C00198E3FC
S1131350948388E1848F28EE24AB8093940158EA27
S11313605093AC019093C401908780A320AF9093D5
S113137098013093B00148E24093C801948784A354
S113138024AF48EB40939C019093B4014093CC016B
S1131390808B50A7309388012093A0018093B801DB
S11313A07093D00188E9848B64A788E880938C01CA
S11313B06093A4015093BC014093D4010895CF924B
S11313C0DF92EF92FF920F931F93CF93DF930F2E31
S11313D0F8E4EF2EF1E0FF2EF02DC8EDD1E0F70197
S11313E024E230E0328321833683258332872187C8
S11313F036872587328B218B368B258B7896CE17B3
S1131400DF0781F790E0FC01EE0FFF1FE80FF91FE3
S1131410EE0FFF1FE60FF11DEE0FFF1FEE0FFF1F74
S1131420E85BFE4F128211828091470190E0209187
S1131430460130E0FC01EE0FFF1FE80FF91FEE0F2D
S1131440FF1FE20FF31FEE0FFF1FEE0FFF1FE85BFE
S1131450FE4F418152814432510509F075C061E06B
S113146070E0AC01440F551F840F951F880F991F1E
S11314708C01020F131F000F111F000F111F075BB8
S11314801E4FAB01415051099701F9017897DF01D3
S1131490818D928D8417950709F043C0808D882330
S11314A05CF0948D93FF08C0C58CD68C94E2C91669
S11314B0D10411F4768F658F86FD11C054969C91EA
S11314C0549793FF0CC05596CD90DC90569794E2B8
S11314D0C916D10421F456967C936E93559785FDD5
S11314E011C0D0969C91D09793FF0CC0D196CD900B
S11314F0DC90D29794E2C916D10421F4D2967C935D
S11315006E93D19784FD0DC08C9183FF0AC0119610
S11315108D919C911297849721F412967C936E93EB
S1131520119734962E173F0709F0B1CF285E3F4F2D
S1131530C217D30709F0A9CF6F5F7F4FF8018081ED
S11315409181849709F49DCFDF91CF911F910F91E1
S1131550FF90EF90DF90CF900895EF92FF920F935A
S11315601F93CF93DF93A09147018A2F90E0B0910E
S113157046012B2F30E0FC01EE0FFF1FE80FF91F8F
S1131580EE0FFF1FE20FF31FEE0FFF1FEE0FFF1F03
S1131590E85BFE4F618172816115710509F43CC2FB
S11315A000E110E2D0E4C0E850912101503209F486
S11315B009C120F4503109F484C1FDC1503409F447
S11315C082C0503809F0F7C17B0141E0E41AF10808
S11315D0FC01EE0FFF1FE80FF91FEE0FFF1FA9011B
S11315E04F5F5F4FE40FF51FEE0FFF1FEE0FFF1F5E
S11315F0E85BFE4F418152814E155F0531F4BF5FB8
S1131600B0934601C0932001D6C1FC01EE0FFF1F29
S1131610E80FF91FEE0FFF1FA90141505109E40F14
S1131620F51FEE0FFF1FEE0FFF1FE85BFE4F41811A
S11316305281E416F50641F4B150B09346010E947C
S1131640AD02D0932001B7C1AC014F5F5F4FFA01E7
S1131650EE0FFF1FE40FF51FEE0FFF1FE20FF31F46
S1131660EE0FFF1FEE0FFF1FE85BFE4F418152811B
S1131670E416F50641F4AF5FA09347010E941F04EE
S11316801093200198C1AC0141505109FA01EE0FA9
S1131690FF1FE40FF51FEE0FFF1FE20FF31FEE0F06
S11316A0FF1FEE0FFF1FE85BFE4F41815281E416DE
S11316B0F50609F048C0A150A09347010E942B03EE
S11316C00093200178C17B0141E0E41AF108FC0198
S11316D0EE0FFF1FE80FF91FEE0FFF1FA9014F5F69
S11316E05F4FE40FF51FEE0FFF1FEE0FFF1FE85BC8
S11316F0FE4F418152814E155F0541F4BF5FB093A7
S113170046010E94AD02C093200155C1FC01EE0FB9
S1131710FF1FE80FF91FEE0FFF1FA90141505109E8
S1131720E40FF51FEE0FFF1FEE0FFF1FE85BFE4FE8
S113173041815281E416F50631F4B150B09346016B
S1131740D093200138C1AC014F5F5F4FFA01EE0F17
S1131750FF1FE40FF51FEE0FFF1FE20FF31FEE0F45
S1131760FF1FEE0FFF1FE85BFE4F418152814E15B4
S11317705F0541F4AF5FA09347010E942B031093D0
S1131780200119C1AC0141505109FA01EE0FFF1FAC
S1131790E40FF51FEE0FFF1FE20FF31FEE0FFF1F05
S11317A0EE0FFF1FE85BFE4F418152814E155F052E
S11317B009F029C1A150A09347010E941F0400937E
S11317C02001F9C07B0141E0E41AF108FC01EE0FAD
S11317D0FF1FE80FF91FEE0FFF1FA9014F5F5F4FB7
S11317E0E40FF51FEE0FFF1FEE0FFF1FE85BFE4F28
S11317F0418152814E155F0541F4BF5FB0934601AC
S11318000E942B03C0932001D6C0FC01EE0FFF1FE2
S1131810E80FF91FEE0FFF1FA90141505109E40F12
S1131820F51FEE0FFF1FEE0FFF1FE85BFE4F418118
S113183052814E155F0541F4B150B09346010E94A8
S11318401F04D0932001B7C0AC014F5F5F4FFA0172
S1131850EE0FFF1FE40FF51FEE0FFF1FE20FF31F44
S1131860EE0FFF1FEE0FFF1FE85BFE4F4181528119
S11318704E155F0531F4AF5FA0934701109320012B
S11318809AC0AC0141505109FA01EE0FFF1FE40F59
S1131890F51FEE0FFF1FE20FF31FEE0FFF1FEE0FFA
S11318A0FF1FE85BFE4F418152814E155F0509F031
S11318B0AFC0A150A09347010E94AD020093200144
S11318C07AC0AB0141505109FC01EE0FFF1FE80F34
S11318D0F91FEE0FFF1FB9016F5F7F4FE60FF71F70
S11318E0EE0FFF1FEE0FFF1FE85BFE4F6181728159
S11318F06417750741F4BF5FB09346010E941F044B
S1131900C093200158C0FC01EE0FFF1FE80FF91F20
S1131910EE0FFF1FB90161507109E60FF71FEE0FBB
S1131920FF1FEE0FFF1FE85BFE4F6181728164179A
S1131930750741F4B150B09346010E942B03D09334
S1131940200139C0BC016F5F7F4FFB01EE0FFF1F09
S1131950E60FF71FEE0FFF1FE20FF31FEE0FFF1F3F
S1131960EE0FFF1FE85BFE4F6181728164177507FC
S113197041F4AF5FA09347010E94AD021093200190
S11319801AC00197FC01EE0FFF1FE80FF91FEE0FBD
S1131990FF1FE20FF31FEE0FFF1FEE0FFF1FE85BA9
S11319A0FE4F818192818417950729F4A150A09359
S11319B047010093200184EF91E00E94C3000E943C
S11319C00C098091200180932101A09147018A2F65
S11319D090E0B09146012B2F30E0FC01EE0FFF1F89
S11319E0E80FF91FEE0FFF1FE20FF31FEE0FFF1FAB
S11319F0EE0FFF1FE85BFE4F618172816115710577
S1131A0009F0D2CD09C07B0141E0E41AF108FDCE12
S1131A10AB014150510977CFDF91CF911F910F91C5
S1131A20FF90EF9008950E945F000E9498090E9421
S1131A307701863B934028F48AE090E00E94C3003B
S1131A40F6CF88E893E10E94C30060E084E00E943E
S1131A50DF090E94AD0A80E090E0089580910401BE
S1131A6090E005974091020150910301849F9001F9
S1131A70859F300D949F300D1124309323012093C2
S1131A8022010895AA1BBB1B51E107C0AA1FBB1F5B
S1131A90A617B70710F0A61BB70B881F991F5A95F6
S1131AA0A9F780959095BC01CD01089597FB072E69
S1131AB016F4009407D077FD09D00E94420D07FC6C
S1131AC005D03EF4909581959F4F0895709561954A
S1131AD07F4F0895EE0FFF1F0590F491E02D0994B8
S1071AE0F894FFCFA4
S1131AE40A001400323277013B016E006E000200DA
S1131AF40200010001006400320068F734080100A8
S1051B048080DB
S9030000FC
