:100000000C9435000C945D000C945D000C949500EC
:100010000C945D000C94AC000C945D000C945D009D
:100020000C945D000C945D000C945D000C945D00DC
:100030000C945D000C945D000C945D000C945D00CC
:100040000C945D000C945D000C945D000C945D00BC
:100050000C945D000C945D000C945D000C945D00AC
:100060000C945D000C945D00540611241FBECFEF6C
:10007000D8E0DEBFCDBF11E0A0E0B1E0E8E3FDE0F5
:1000800002C005900D92AA31B107D9F721E0AAE18B
:10009000B1E001C01D92A733B207E1F710E0C5E35C
:1000A000D0E004C02197FE010E947C06C433D10732
:1000B000C9F70E9417060C949A060C94000087B1A9
:1000C000886187B983E68AB987B1877D87B984B1AA
:1000D000866084B921E025B930E83BB983EA84BD64
:1000E00095E095BD81EA809380008DE0809381004A
:1000F000E1EBF0E08081876080831092B200109283
:10010000C50087E68093C40086E08093C20084E83F
:1001100080937A0087E080937E0030936D00209377
:100120006B0090936800789408951F920F920FB619
:100130000F9211248F939F938091350190913601F6
:10014000019690933601809335019F918F910F9086
:100150000FBE0F901F9018951F920F920FB60F921F
:1001600011248F939F9380913501909136010196D0
:1001700090933601809335019F918F910F900FBE20
:100180000F901F9018950F931F938C01000F111F54
:10019000880F991F880F991F880F991F080F191F23
:1001A00020E030E040E050E0BA01E2EBF0E0808196
:1001B000813A30F480818F5F80838081813AD0F3EF
:1001C00010824F5F5F4F6F4F7F4F04171507260751
:1001D000370768F780E090E01F910F910895449AE7
:1001E000089544980895439A089543980895CF93A5
:1001F000DF9381E090E00E94C30082E480937C0062
:100200000E94F500EAE7F0E08081806480838081CD
:1002100086FDFDCF81E090E00E94C300EAE7F0E0B8
:10022000808180648083808186FDFDCFC0917800CD
:1002300080917900D0E0D82B0E94F30081E090E01B
:100240000E94C300EAE7F0E08081806480838081BF
:1002500086FDFDCF0E94F500809178002091790005
:1002600090E0922B8C1B9D0BDF91CF910895CF9343
:10027000DF9381E090E00E94C30086E480937C00DD
:100280000E94F500EAE7F0E080818064808380814D
:1002900086FDFDCF81E090E00E94C300EAE7F0E038
:1002A000808180648083808186FDFDCFC09178004D
:1002B00080917900D0E0D82B0E94F30081E090E09B
:1002C0000E94C300EAE7F0E080818064808380813F
:1002D00086FDFDCF0E94F500809178002091790085
:1002E00090E0922B8C1B9D0BDF91CF91089581E0C4
:1002F00090E00E94C30086E480937C000E94F50099
:10030000EAE7F0E0808180648083808186FDFDCF14
:1003100081E090E00E94C300EAE7F0E08081806421
:100320008083808186FDFDCF0E94F30081E090E014
:100330000E94C300EAE7F0E08081806480838081CE
:1003400086FDFDCF0E94F500809178002091790014
:1003500090E0922B089581E090E00E94C30081E438
:1003600080937C00EAE7F0E0808180648083808174
:1003700086FDFDCF81E090E00E94C300EAE7F0E057
:10038000808180648083808186FDFDCF0E94EF00A4
:1003900081E090E00E94C300EAE7F0E080818064A1
:1003A0008083808186FDFDCF0E94F10080917800DE
:1003B0002091790090E0922B089581E090E00E94D6
:1003C000C30087E480937C00EAE7F0E080818064EA
:1003D0008083808186FDFDCF81E090E00E94C30094
:1003E000EAE7F0E0808180648083808186FDFDCF34
:1003F0000E94EF0081E090E00E94C300EAE7F0E095
:10040000808180648083808186FDFDCF0E94F10021
:10041000809178002091790090E0922B0895CF92FE
:10042000DF92EF92FF920F931F93CF93DF930F2EE4
:10043000FEEACF2EF3E0DF2EF02D0F2EF8E8EF2EA0
:10044000F12CF02D02E310E0CAE8D0E081E090E06A
:100450000E94C3000E94F7008E3A23E0920708F43E
:1004600051C08E5A934090931901809318018431A2
:10047000910590F410921901109218011092320116
:10048000109231018091290190912A010196909357
:100490002A018093290106C0C39720F01093190107
:1004A0000093180180911801909119012091310158
:1004B00030913201AC01421B530B9A0150932E0133
:1004C00040932D0160911401709115010E946806FE
:1004D000FB016091120170911301C9010E9468062D
:1004E0006E0F7F1F70931901609318017093320192
:1004F00060933101609334017727F7017183608342
:1005000017BC51C09601281B390B30931901209359
:1005100018012431310590F410921901109218013C
:1005200010923201109231018091290190912A019B
:10053000019690932A018093290107C02333310546
:1005400020F01093190100931801809118019091E7
:1005500019012091310130913201AC01421B530B42
:100560009A0150932E0140932D01609114017091D6
:1005700015010E946806FB01609112017091130140
:10058000C9010E9468066E0F7F1F70931901609366
:100590001801709332016093310160933401F701C7
:1005A0001182108267BD81E090E00E94C3000E942A
:1005B00037018E3AF3E09F0708F450C08E5A9340FB
:1005C00090931701809316018431910590F4109255
:1005D0001701109216011092300110922F01809194
:1005E000290190912A01019690932A018093290173
:1005F00006C0C39720F01093170100931601809155
:1006000016019091170120912F0130913001AC011A
:10061000421B530B9A0150932C0140932B01609184
:100620001401709115010E946806FB01609112018E
:1006300070911301C9010E9468066E0F7F1F7093AD
:100640001701609316017093300160932F0160933E
:10065000330177277983688318BC4FC0F601E81B04
:10066000F90BF0931701E0931601E431F10590F4D2
:1006700010921701109216011092300110922F0162
:100680008091290190912A01019690932A018093EB
:10069000290106C0F39720F010931701009316016B
:1006A000809116019091170120912F013091300116
:1006B000AC01421B530B9A0150932C0140932B0128
:1006C00060911401709115010E946806FB01609110
:1006D000120170911301C9010E9468066E0F7F1FFD
:1006E00070931701609316017093300160932F018E
:1006F000609333011982188268BD8091290190911D
:100700002A01C39708F4A2CE1092890010928800A3
:1007100017BC10928B0010928A0018BC10922A010C
:1007200010922901DF91CF911F910F91FF90EF90CF
:10073000DF90CF900895CF93DF93209127013091E0
:10074000280140911001509111014217530708F000
:10075000B3C080910C0190910D018217930708F0AE
:100760004EC0281B390B220F331F309324012093D6
:10077000230180911F0190912001F901E81BF90BE1
:10078000F0932201E093210160910601709107012D
:10079000C9010E946806EB0160910201709103019A
:1007A000CF010E9468066C0F7D1F70931E0160933D
:1007B0001D013093200120931F0190910901292FE1
:1007C000269530E02617370720F430931E0120933A
:1007D0001D0180911D0180931C01890F10928900D9
:1007E0001092880087BD809108018C5F90911C0158
:1007F000891B10928B0010928A0088BD52C1AC01F7
:10080000421B530B9A01220F331F30932401209374
:10081000230180911F01909120018217930740F4DA
:10082000A901481B590B509322014093210106C096
:10083000821B930B909322018093210180912101CF
:100840009091220160910001709101010E9468065F
:10085000FB016091040170910501C9010E946806C5
:100860006E0F7F1F70931E0160931D013093200156
:1008700020931F0180910901282F269530E026172B
:10088000370720F430931E0120931D0190911D0124
:1008900090931C01891B109289001092880087BDDB
:1008A0009091080180911C01890F8C5F10928B0040
:1008B00010928A0088BDF5C0809125019091260193
:1008C00060910E0170910F016817790708F0BFC0A1
:1008D00020910A0130910B012817390708F05CC0FC
:1008E000821B930B9C01220F331F30932401209312
:1008F000230180911F01909120018217930740F4FA
:10090000A901481B590B509322014093210106C0B5
:10091000821B930B909322018093210180912101EE
:100920009091220160910201709103010E9468067A
:10093000FB016091060170910701C9010E946806E0
:100940006E0F7F1F70931E0160931D013093200175
:1009500020931F0180910901282F269530E026174A
:10096000370720F430931E0120931D0190911D0143
:1009700090931C01891B109289001092880087BDFA
:100980009091080180911C01890F8C5F10928B005F
:1009900010928A0088BD85C0281B390B220F331F97
:1009A000309324012093230180911F019091200115
:1009B0008217930740F4A901481B590B5093220159
:1009C0004093210106C0821B930B909322018093D8
:1009D000210180912101909122016091000170918B
:1009E00001010E946806FB016091040170910501FC
:1009F000C9010E9468066E0F7F1F70931E016093ED
:100A00001D013093200120931F0190910901292F8E
:100A1000269530E02617370720F430931E012093E7
:100A20001D0180911D0180931C01890F1092890086
:100A30001092880087BD809108018C5F90911C0105
:100A4000891B10928B0010928A0088BD2AC024173F
:100A5000350738F58617970720F510922401109274
:100A60002301109222011092210110921E01109276
:100A70001D011092200110921F0110921C01809103
:100A80000901109289001092880087BD80910801A9
:100A90008C5F90911C01891B10928B0010928A0030
:100AA00088BDDF91CF9108951092360110923501E3
:100AB000809135019091360180359105F0F5A8E8D7
:100AC000B0E032E1EAE8F0E024E15CE14EE176E218
:100AD00068E28091350190913601CC9700F58091C4
:100AE000350190913601889768F411961C921E92F8
:100AF00037BD1182108228BD809135019091360159
:100B0000889798F311961C921E9257BD11821082FD
:100B100048BD8091350190913601CC9700F3119634
:100B20001C921E9277BD1182108268BD80913501A2
:100B3000909136018035910560F210923601109245
:100B40003501809135019091360188379540A8F4A0
:100B50000E94AB0190932801809327010E94DD0140
:100B600090932601809325010E949B03809135017B
:100B7000909136018837954058F3109236011092C3
:100B80003501809135019091360180359105E8F568
:100B9000A8E8B0E038E2EAE8F0E02EE1522F44E1C4
:100BA0006AE08091350190913601CC9700F58091F3
:100BB000350190913601889768F411961C921E9227
:100BC00037BD1182108228BD809135019091360188
:100BD000889798F311961C921E9257BD118210822D
:100BE00048BD8091350190913601CC9700F3119664
:100BF0001C921E9247BD1182108268BD8091350102
:100C0000909136018035910560F20E94770185361A
:100C1000910510F00E940F02109289001092880036
:100C200017BC10928B0010928A0018BC0895CF93C5
:100C3000DF930E945F000E94F7008032934028F407
:100C400081E090E00E94C300F6CFC0E0D0E060E019
:100C500070E0CE010E9482062296C11584E0D8077A
:100C6000B1F788EE93E00E94C3000E94540588EE1D
:100C700093E00E94C3000E94540588EE93E00E9416
:100C8000C3000E94540588EE93E00E94C3000E94B6
:100C9000540588EE93E00E94C3000E94540580E052
:100CA00090E0DF91CF9108958091080190E0059741
:100CB0004091060150910701849F9001859F300D5E
:100CC000949F300D112430931B0120931A01089535
:100CD000AA1BBB1B51E107C0AA1FBB1FA617B70762
:100CE00010F0A61BB70B881F991F5A95A9F780957E
:100CF0009095BC01CD010895EE0FFF1F0590F49172
:100D0000E02D09940196272F0E9489060C948806ED
:100D1000262FF999FECF92BD81BDF89A019700B4B4
:100D2000021639F01FBA20BD0FB6F894FA9AF99A54
:080D30000FBE0895F894FFCFF7
:100D380002000200020002003232AC00A4006E0081
:0A0D48006E0002000200010001002D
:00000001FF
