S0100000546573744D61696E2E73726563EF
S11300000C9434000C9451000C9451000C9489000D
S11300100C9451000C94A0000C9451000C945100C9
S11300200C9451000C9451000C9451000C94510008
S11300300C9451000C9451000C9451000C945100F8
S11300400C9451000C9451000C9451000C945100E8
S11300500C9451000C9451000C9451000C945100D8
S11300600C9451000C94510011241FBECFEFD8E022
S1130070DEBFCDBF11E0A0E0B1E0E8E2F3E002C0F2
S113008005900D92A030B107D9F721E0A0E0B1E0CE
S113009001C01D92A230B207E1F70E9444010C9402
S11300A092010C94000087B1886187B983E68AB90C
S11300B087B1877D87B984B1866084B921E025B989
S11300C030E83BB983EA84BD95E095BD81EA80932D
S11300D080008DE080938100E1EBF0E08081876017
S11300E080831092B2001092C50087E68093C4000A
S11300F086E08093C20084E880937A0087E080934E
S11301007E0030936D0020936B0090936800789488
S113011008951F920F920FB60F9211248F939F93FD
S113012080910001909101010196909301018093C7
S113013000019F918F910F900FBE0F901F90189503
S11301401F920F920FB60F9211248F939F93809159
S113015000019091010101969093010180930001A7
S11301609F918F910F900FBE0F901F901895599AE1
S11301700895599808950F931F938C01000F111F30
S1130180880F991F880F991F880F991F080F191F2F
S113019020E030E040E050E0BA01E2EBF0E08081A2
S11301A0813A30F480818F5F80838081813AD0F3FB
S11301B010824F5F5F4F6F4F7F4F0417150726075D
S11301C0370768F780E090E01F910F910895DF9260
S11301D0EF92FF920F931F93CF93DF9300D000D041
S11301E01F92CDB7DEB70F2EF1ECEF2EF12CF02DD0
S11301F098E0F70190834AE0BE016F5F7F4F90E083
S11302000E945D0181E090E00E94BB00898106ECC0
S113021010E0F801808381E090E00E94BB008A81B5
S1130220F801808381E090E00E94BB008B81F8019B
S1130230808381E090E00E94BB008C81F801808380
S113024081E090E00E94BB008AE0F801808381E0B5
S113025090E00E94BB000F2EFDE0DF2EF02DF80190
S1130260D08281E090E00E94BB00F701D0820F9021
S11302700F900F900F900F90DF91CF911F910F91DE
S1130280FF90EF90DF9008950E94530088E893E177
S11302900E94BB000E94B90089E00E94E70088EE3A
S11302A093E00E94BB000E94B70089E00E94E7002F
S11302B088EE93E00E94BB00E9CFBB274A3031F4BB
S11302C0992322F4BDE2909581959F4F0C94690186
S11302D0BB27FB015527AA27880F991FAA1FA4171C
S11302E010F0A41B83955051B9F7A05DAA3308F010
S11302F0A95DA193009779F7B111B1931192CB0144
S11303000C948201DC01FC01672F71917723E1F7E2
S1130310329704C07C916D9370836291AE17BF07CE
S10B0320C8F30895F894FFCF1F
S9030000FC
