S019000072696768744D6F746F72466F72776172642E7372656307
S11300000C9434000C943E000C943E000C943E007E
S11300100C943E000C943E000C943E000C943E0064
S11300200C943E000C943E000C943E000C943E0054
S11300300C943E000C943E000C943E000C943E0044
S11300400C943E000C943E000C943E000C943E0034
S11300500C943E000C943E000C943E000C943E0024
S11300600C943E000C943E0011241FBECFEFD8E048
S1130070DEBFCDBF0E9440000C9462000C940000CF
S113008080E28AB983E284BD18BC85E085BD80E046
S113009088BD2FEF39E698E1215030409040E1F7D8
S11300A000C000008B5F8F3F99F788BD2FEF39E6C2
S11300B098E1215030409040E1F700C000008550A5
S10B00C0A1F7E5CFF894FFCF8E
S9030000FC
