:100000000C9435000C945D000C945D000C949500EC
:100010000C945D000C94AC000C945D000C945D009D
:100020000C945D000C945D000C945D000C945D00DC
:100030000C945D000C945D000C945D000C945D00CC
:100040000C945D000C945D000C94C2010C945D0056
:100050000C945D000C945D000C945D000C945D00AC
:100060000C945D000C945D00EF0111241FBECFEFD6
:10007000D8E0DEBFCDBF11E0A0E0B1E0E6E1F4E002
:1000800002C005900D92A430B107D9F721E0A4E099
:10009000B1E001C01D92A930B207E1F710E0C5E35D
:1000A000D0E004C02197FE010E940302C433D107AF
:1000B000C9F70E9498010C9409020C94000087B1C2
:1000C000886187B983E68AB987B1877D87B984B1AA
:1000D000866084B921E025B930E83BB983EA84BD64
:1000E00095E095BD81EA809380008DE0809381004A
:1000F000E1EBF0E08081876080831092B200109283
:10010000C50087E68093C40086E08093C20084E83F
:1001100080937A0087E080937E0030936D00209377
:100120006B0090936800789408951F920F920FB619
:100130000F9211248F939F93809106019091070154
:10014000019690930701809306019F918F910F90E4
:100150000FBE0F901F9018951F920F920FB60F921F
:1001600011248F939F93809106019091070101962E
:1001700090930701809306019F918F910F900FBE7E
:100180000F901F901895599A0895599808950F93B4
:100190001F938C01000F111F880F991F880F991F43
:1001A000880F991F080F191F20E030E040E050E051
:1001B000BA01E2EBF0E08081813A30F480818F5F18
:1001C00080838081813AD0F310824F5F5F4F6F4F01
:1001D0007F4F041715072607370768F780E090E080
:1001E0001F910F9108950F931F93CF93DF9308E80A
:1001F00010E0F8011182108288E787BDCAE8D0E0DC
:1002000088E790E09983888318BC85E590E00E9498
:10021000C700F8011182108217BC1982188218BC1D
:10022000DF91CF911F910F9108950F931F93CF935B
:10023000DF9308E810E088E790E0F801918380837D
:1002400017BCCAE8D0E01982188288BD85E590E025
:100250000E94C700F8011182108217BC198218820F
:1002600018BCDF91CF911F910F9108950F931F93A9
:10027000CF93DF9308E810E0F8011182108288E73D
:1002800087BDCAE8D0E01982188288BD8AEA90E06A
:100290000E94C700F8011182108217BC19821882CF
:1002A00018BCDF91CF911F910F9108950F931F9369
:1002B000CF93DF9308E810E088E790E0F80191839E
:1002C000808317BCCAE8D0E09983888318BC8AEA87
:1002D00090E00E94C700F8011182108217BC1982B9
:1002E000188218BCDF91CF911F910F9108950F9341
:1002F0001F93CF93DF9308E810E088E790E0F801C0
:100300009183808317BCCAE8D0E01982188288BD27
:1003100086EE90E00E94C700F8011182108217BC9F
:100320001982188218BCDF91CF911F910F91089507
:100330000E945F00809108018C36D1F028F482364B
:1003400069F0863631F0F6CF8237B9F0853759F04B
:10035000F1CF0E94360110920801ECCF0E945601A5
:1003600010920801E7CF0E94770110920801E2CFB6
:100370000E94150110920801DDCF0E94F300109237
:100380000801D8CF1F920F920FB60F9211242F930E
:100390003F934F935F936F937F938F939F93AF930D
:1003A000BF93EF93FF9382E7809308010E94C300FD
:1003B00088EC90E00E94C7000E94C500FF91EF9179
:1003C000BF91AF919F918F917F916F915F914F916D
:1003D0003F912F910F900FBE0F901F901895809115
:1003E000020190E005974091000150910101849F26
:1003F0009001859F300D949F300D1124309305019D
:10040000209304010895EE0FFF1F0590F491E02D55
:060410000994F894FFCFEF
:0404160002003200AE
:00000001FF
