S0180000616C69676E546F46726F6E7457616C6C2E73726563A5
S11300000C9435000C945D000C945D000C949500E8
S11300100C945D000C94AC000C945D000C945D0099
S11300200C945D000C945D000C945D000C945D00D8
S11300300C945D000C945D000C945D000C945D00C8
S11300400C945D000C945D000C945D000C945D00B8
S11300500C945D000C945D000C945D000C945D00A8
S11300600C945D000C945D00B20211241FBECFEF0E
S1130070D8E0DEBFCDBF11E0A0E0B1E0E4ECF5E0F4
S113008002C005900D92AC30B107D9F721E0ACE085
S1130090B1E001C01D92AA31B207E1F710E0C5E357
S11300A0D0E004C02197FE010E94DA02C433D107D4
S11300B0C9F70E94AE020C94E0020C94000087B1D0
S11300C0886187B983E68AB987B1877D87B984B1A6
S11300D0866084B921E025B930E83BB983EA84BD60
S11300E095E095BD81EA809380008DE08093810046
S11300F0E1EBF0E08081876080831092B20010927F
S1130100C50087E68093C40086E08093C20084E83B
S113011080937A0087E080937E0030936D00209373
S11301206B0090936800789408951F920F920FB615
S11301300F9211248F939F9380911801909119012C
S1130140019690931901809318019F918F910F90BC
S11301500FBE0F901F9018951F920F920FB60F921B
S113016011248F939F938091180190911901019606
S113017090931901809318019F918F910F900FBE56
S11301800F901F9018950F931F938C01000F111F50
S1130190880F991F880F991F880F991F080F191F1F
S11301A020E030E040E050E0BA01E2EBF0E0808192
S11301B0813A30F480818F5F80838081813AD0F3EB
S11301C010824F5F5F4F6F4F7F4F0417150726074D
S11301D0370768F780E090E01F910F910895439AE4
S11301E0089543980895CF93DF9381E090E00E94AF
S11301F0C30082E480937C000E94F100EAE7F0E00F
S1130200808180648083808186FDFDCFEAE7F0E011
S1130210808180648083808186FDFDCFC0917800D9
S113022080917900D0E0D82B0E94EF0081E090E02B
S11302300E94C300EAE7F0E08081806480838081CB
S113024086FDFDCF0E94F100809178002091790015
S113025090E0922B8C1B9D0BDF91CF910895CF934F
S1130260DF9381E090E00E94C30086E480937C00E9
S11302700E94F100EAE7F0E080818064808380815D
S113028086FDFDCFEAE7F0E0808180648083808191
S113029086FDFDCFC091780080917900D0E0D82B05
S11302A00E94EF0081E090E00E94C300EAE7F0E0E2
S11302B0808180648083808186FDFDCF0E94F1006F
S11302C0809178002091790090E0922B8C1B9D0BFB
S11302D0DF91CF9108950F2EFEEACF2EF3E0DF2EAB
S11302E0F02D0F2EF8E8EF2EF12CF02D02E310E0A4
S11302F0CAE8D0E081E090E00E94C3000E94F300CD
S11303008E3A23E0920708F448C08E5A93409093A3
S11303100A01809309018431910548F410920A017D
S113032010920901109215011092140106C0C3978E
S113033020F010930A010093090180910901909122
S11303400A012091140130911501AC01421B530B99
S11303509A0150931101409310016091050170912D
S113036006010E94C602FB01609103017091040121
S1130370C9010E94C6026E0F7F1F70930A01609329
S11303800901709315016093140160931701772795
S1130390F7017183608317BC48C09601281B390B91
S11303A030930A01209309012431310548F4109255
S11303B00A0110920901109215011092140107C04C
S11303C02333310520F010930A0100930901809131
S11303D0090190910A012091140130911501AC0199
S11303E0421B530B9A0150931101409310016091E9
S11303F00501709106010E94C602FB016091030190
S113040070910401C9010E94C6026E0F7F1F709390
S11304100A016093090170931501609314016093BC
S11304201701F7011182108267BD81E090E00E94FC
S1130430C3000E942F018E3AF3E09F0708F447C0DF
S11304408E5A93409093080180930701843191055B
S113045048F41092080110920701109213011092AF
S1130460120106C0C39720F01093080100930701FE
S1130470809107019091080120911201309113019C
S1130480AC01421B530B9A0150930F0140930E0190
S113049060910501709106010E94C602FB01609102
S11304A0030170910401C9010E94C6026E0F7F1FEF
S11304B07093080160930701709313016093120114
S11304C06093160177277983688318BC13CFF601EC
S11304D0E81BF90BF0930801E0930701E431F105FF
S11304E048F410920801109207011092130110921F
S11304F0120106C0F39720F010930801009307013E
S1130500809107019091080120911201309113010B
S1130510AC01421B530B9A0150930F0140930E01FF
S113052060910501709106010E94C602FB01609171
S1130530030170910401C9010E94C6026E0F7F1F5E
S11305407093080160930701709313016093120183
S1130550609316011982188268BDCCCE0E945F0098
S11305600E946B018091020190E005974091000187
S113057050910101849F9001859F300D949F300D0F
S1130580112430930D0120930C010895AA1BBB1B69
S113059051E107C0AA1FBB1FA617B70710F0A61B7F
S11305A0B70B881F991F5A95A9F780959095BC01A0
S11305B0CD010895EE0FFF1F0590F491E02D0994ED
S10705C0F894FFCFD9
S10F05C40A0032020002000100010000E5
S9030000FC
